:020000040800F2
:100000000008002089010008E5010008E50100085A
:10001000E5010008E5010008E50100080000000016
:10002000000000000000000000000000E5010008E2
:10003000E501000800000000E5010008E5010008F6
:10004000E5010008E5010008E5010008E5010008F8
:10005000E5010008E5010008E5010008E5010008E8
:10006000E5010008E5010008E5010008E5010008D8
:10007000E5010008E5010008E5010008E5010008C8
:10008000E5010008E5010008E5010008E5010008B8
:10009000E5010008E5010008E5010008E5010008A8
:1000A000E5010008E5010008E5010008E501000898
:1000B000E5010008E5010008E5010008E501000888
:1000C000E5010008E5010008E5010008E501000878
:1000D000E5010008E5010008E5010008E501000868
:1000E000E5010008E5010008E5010008E501000858
:1000F000E5010008E5010008E5010008E501000848
:10010000E5010008E5010008E5010008E501000837
:10011000E5010008E5010008E5010008E501000827
:10012000E5010008E5010008E5010008E501000817
:10013000E5010008E5010008E5010008E501000807
:10014000E5010008E5010008E5010008E5010008F7
:10015000E5010008E5010008E5010008E5010008E7
:10016000E5010008E5010008E5010008E5010008D7
:10017000E5010008E5010008E5010008E5010008C7
:10018000E5010008E501000880B582B000AF104B22
:100190007B60104B3B6007E03B681A1D3A607A6851
:1001A000111D796012681A603B680B4A9342F3D3C1
:1001B0000A480B494FF000028842B8BF40F8042BB0
:1001C000FADB00F013F800BF0837BD4680BD00BF62
:1001D000F4030008000000200000002000000020C0
:1001E0000000002080B400AFFEE700BF80B584B0FF
:1001F00000AF0023FB600121082000F033F84FF42A
:1002000080537B6001233B720023BB7201237B720E
:100210000023FB723B1D1946104800F041F84FF4D3
:1002200080510E4800F0CAF80023FB6002E0FB6832
:100230000133FB60FB680A4A9342F8DD4FF48051BA
:10024000064800F0C9F80023FB6002E0FB680133B8
:10025000FB60FB68024A9342F8DDE0E7000C0240D5
:100260001FA1070080B483B000AF78600B46FB701D
:10027000FB78002B06D00949084B1A6B7B681343A7
:100280000B6306E00549054B1A6B7B68DB431340A3
:100290000B6300BF0C37BD4680BC7047003802407E
:1002A00080B487B000AF7860396000237B610023A1
:1002B0003B610023FB6000237B6176E001227B69C8
:1002C00002FA03F33B613B681A683B691340FB6029
:1002D000FA683B699A4265D17B681A687B695B0062
:1002E000032101FA03F3DB431A407B681A607B6841
:1002F0001A683B681B7919467B695B0001FA03F3B6
:100300001A437B681A603B681B79012B03D03B685A
:100310001B79022B2ED17B689A687B695B000321D5
:1003200001FA03F3DB431A407B689A607B689A68A2
:100330003B685B7919467B695B0001FA03F31A435A
:100340007B689A607B685A687B699BB2012101FADD
:1003500003F3DB431A407B685A607B685A683B684A
:100360009B7919467B699BB201FA03F39BB21A434E
:100370007B685A607B68DA687B699BB25B0003210B
:1003800001FA03F3DB431A407B68DA607B68DA68C2
:100390003B68DB7919467B695B0001FA03F31A437A
:1003A0007B68DA607B6901337B617B690F2B85D9C0
:1003B00000BF1C37BD4680BC704700BF80B483B00F
:1003C00000AF78600B467B807B687A881A8300BF19
:1003D0000C37BD4680BC704780B483B000AF7860F6
:1003E0000B467B807B687A885A8300BF0C37BD46FA
:0403F00080BC704716
:0400000508000000EF
:00000001FF
