:020000040800F2
:100000000008002089010008E5010008E50100085A
:10001000E5010008E5010008E50100080000000016
:10002000000000000000000000000000E5010008E2
:10003000E501000800000000E5010008E5010008F6
:10004000E5010008E5010008E5010008E5010008F8
:10005000E5010008E5010008E5010008E5010008E8
:10006000E5010008E5010008E5010008E5010008D8
:10007000E5010008E5010008E5010008E5010008C8
:10008000E5010008E5010008E5010008E5010008B8
:10009000E5010008E5010008E5010008E5010008A8
:1000A000E5010008E5010008E5010008E501000898
:1000B000E5010008E5010008E5010008E501000888
:1000C000E5010008E5010008E5010008E501000878
:1000D000E5010008E5010008E5010008E501000868
:1000E000E5010008E5010008E5010008E501000858
:1000F000E5010008E5010008E5010008E501000848
:10010000E5010008E5010008E5010008E501000837
:10011000E5010008E5010008E5010008E501000827
:10012000E5010008E5010008E5010008E501000817
:10013000E5010008E5010008E5010008E501000807
:10014000E5010008E5010008E5010008E5010008F7
:10015000E5010008E5010008E5010008E5010008E7
:10016000E5010008E5010008E5010008E5010008D7
:10017000E5010008E5010008E5010008E5010008C7
:10018000E5010008E501000880B582B000AF104B22
:100190007B60104B3B6007E03B681A1D3A607A6851
:1001A000111D796012681A603B680B4A9342F3D3C1
:1001B0000A480B494FF000028842B8BF40F8042BB0
:1001C000FADB00F033F800BF0837BD4680BD00BF42
:1001D000AC05000800000020000000200000002006
:1001E0000000002080B400AFFEE700BF80B582B001
:1001F00000AF00237B6000237B600DE000210A48F4
:1002000000F0A6F900BF084B5B6A4FF6FE729342FE
:10021000F9D97B6801337B607B68292BEEDD00BF59
:100220000837BD4680BD00BF0008004080B586B0DD
:1002300000AF0121082000F03BF80121042000F06C
:1002400055F84FF4E0433B6101233B750023BB7538
:100250000023FB7501237B750023BB810023FB80FA
:100260000023BB804FF6FF73BB603B1D19460E4851
:1002700000F004F907F1100319460C4800F054F897
:100280000121094800F072F94FF48051074800F04D
:10029000D9F8FFF7ABFF4FF48051044800F0E0F8C5
:1002A000FFF7A4FFF0E700BF00080040000C024089
:1002B00080B483B000AF78600B46FB70FB78002BF6
:1002C00006D00949084B1A6B7B6813430B6306E0A1
:1002D0000549054B1A6B7B68DB4313400B6300BF7A
:1002E0000C37BD4680BC70470038024080B483B0F4
:1002F00000AF78600B46FB70FB78002B06D00949F5
:10030000084B1A6C7B6813430B6406E00549054BE8
:100310001A6C7B68DB4313400B6400BF0C37BD468F
:1003200080BC70470038024080B487B000AF78606E
:10033000396000237B6100233B610023FB600023C5
:100340007B6176E001227B6902FA03F33B613B6843
:100350001A683B691340FB60FA683B699A4265D1B1
:100360007B681A687B695B00032101FA03F3DB43B6
:100370001A407B681A607B681A683B681B791946CB
:100380007B695B0001FA03F31A437B681A603B68E0
:100390001B79012B03D03B681B79022B2ED17B6884
:1003A0009A687B695B00032101FA03F3DB431A407F
:1003B0007B689A607B689A683B685B7919467B69C1
:1003C0005B0001FA03F31A437B689A607B685A6802
:1003D0007B699BB2012101FA03F3DB431A407B687E
:1003E0005A607B685A683B689B7919467B699BB267
:1003F00001FA03F39BB21A437B685A607B68DA68A0
:100400007B699BB25B00032101FA03F3DB431A40D3
:100410007B68DA607B68DA683B68DB7919467B6960
:100420005B0001FA03F31A437B68DA607B690133EE
:100430007B617B690F2B85D900BF1C37BD4680BC13
:10044000704700BF80B483B000AF78600B467B80FC
:100450007B687A881A8300BF0C37BD4680BC704722
:1004600080B483B000AF78600B467B807B687A886D
:100470005A8300BF0C37BD4680BC704780B485B03E
:1004800000AF786039600023FB817B681B88FB81AB
:100490007B68284A934213D07B68274A93420FD047
:1004A0007B68B3F1804F0BD07B68244A934207D01E
:1004B0007B68234A934203D07B68224A934208D147
:1004C000FB8923F07003FB813B685A88FB89134347
:1004D000FB817B681C4A93420CD07B681B4A934289
:1004E00008D0FB8923F44073FB813B681A89FB89A0
:1004F0001343FB817B68FA891A803B685A687B68E2
:10050000DA623B681A887B681A857B68094A9342DD
:1005100003D07B68084A934204D13B689B7A9AB225
:100520007B681A867B6801229A8200BF1437BD4619
:1005300080BC7047000001400004014000040040FE
:1005400000080040000C0040001000400014004073
:1005500080B483B000AF786039607B683A685A62D3
:1005600000BF0C37BD4680BC704700BF80B483B06D
:1005700000AF78600B46FB70FB78002B08D07B68DF
:100580001B889BB243F001039AB27B681A8007E094
:100590007B681B889BB223F001039AB27B681A80A8
:0C05A00000BF0C37BD4680BC704700BF98
:0400000508000000EF
:00000001FF
