:020000040800F2
:100000003808002085030008E1030008E103000828
:10001000E1030008E1030008E1030008000000001C
:10002000000000000000000000000000E1030008E4
:10003000E103000800000000E1030008E1030008FC
:10004000E1030008E1030008E1030008E103000800
:10005000E1030008E1030008E1030008E1030008F0
:10006000E1030008E1030008E1030008E1030008E0
:10007000E1030008E1030008E1030008E1030008D0
:10008000E1030008E1030008E1030008E1030008C0
:10009000E1030008E1030008E1030008E1030008B0
:1000A000E1030008E1030008E1030008E1030008A0
:1000B000E1030008E1030008E1030008E103000890
:1000C000E1030008E1030008E1030008E103000880
:1000D000E1030008E1030008E1030008E103000870
:1000E000E1030008E1030008E1030008E103000860
:1000F000E1030008E1030008E1030008E103000850
:10010000E1030008E1030008E1030008E10300083F
:10011000E1030008E1030008E1030008E10300082F
:10012000E1030008E1030008E1030008E10300081F
:10013000E1030008E1030008E1030008E10300080F
:10014000E1030008E1030008E1030008E1030008FF
:10015000E1030008E1030008E1030008E1030008EF
:10016000E1030008E1030008E1030008E1030008DF
:10017000E1030008E1030008E1030008E1030008CF
:10018000E1030008E103000880B58AB000AF7860A1
:10019000396000237B6200233B620023FB61002364
:1001A000BB617B681B8A9BB27B627B6A23F44053F2
:1001B0007B623B68DB881A467B6A13437B627B6AFF
:1001C0009AB27B681A827B689B899BB27B627B6A4E
:1001D00023F4B05323F00C037B623B689A883B689E
:1001E0001B8913439AB23B685B8913439BB21A463F
:1001F0007B6A13437B627B6A9AB27B689A817B68D5
:100200009B8A9BB27B627B6A23F440737B623B6870
:100210009B891A467B6A13437B627B6A9AB27B682E
:100220009A8207F10803184600F0DCF97B68314A2E
:10023000934203D07B68304A934202D17B693B6290
:1002400001E03B693B627B689B899BB29BB21BB21E
:10025000002B0CDA3A6A13469B0013449A001A44A6
:100260003B681B685B00B2FBF3F3FB610BE03A6A8F
:1002700013469B0013449A001A443B681B689B007A
:10028000B2FBF3F3FB61FB691C4AA2FB03235B098E
:100290001B017B627B6A1B09642202FB03F3FA6980
:1002A000D31ABB617B689B899BB29BB21BB2002BAC
:1002B0000CDABB69DB003233104AA2FB03235B0973
:1002C00003F007037A6A13437B620BE0BB691B01EF
:1002D00032330A4AA2FB03235B0903F00F037A6A55
:1002E00013437B627B6A9AB27B681A8100BF28370E
:1002F000BD4680BD00100140001401401F85EB5138
:1003000080B483B000AF78600B46FB70FB78002BA5
:1003100008D07B689B899BB243F400539AB27B68F8
:100320009A8107E07B689B899BB223F400539AB2C1
:100330007B689A8100BF0C37BD4680BC704700BF08
:1003400080B483B000AF78600B467B807B88C3F3BA
:1003500008039AB27B689A8000BF0C37BD4680BC08
:10036000704700BF80B483B000AF78607B689B8823
:100370009BB2C3F308039BB218460C37BD4680BC42
:10038000704700BF80B582B000AF104B7B60104B50
:100390003B6007E03B681A1D3A607A68111D79607E
:1003A00012681A603B680B4A9342F3D30A480B4920
:1003B0004FF000028842B8BF40F8042BFADB00F08F
:1003C000E1F800BF0837BD4680BD00BFAE09000898
:1003D0000000002010000020100000203400002049
:1003E00080B400AFFEE700BF80B582B000AF00234D
:1003F0007B600121022000F09FF90121082000F01C
:100400009BF9294BC0221A60274B02221A71264BF6
:1004100000229A71244B01225A71234B0022DA7177
:1004200007220621214800F06DFA072207211F4804
:1004300000F068FA1C491D4800F0BAF91C4B4FF453
:1004400080521A601A4B01221A71194B00229A71BC
:10045000174B01225A71164B0022DA7114491548C4
:1004600000F0A6F94FF48051124800F02FFA002353
:100470007B6002E07B6801337B607B680E4A9342BD
:10048000F8DD4FF480510B4800F02EFA00237B601A
:1004900002E07B6801337B607B68074A9342F8DDAA
:1004A00000BF0837BD4680BD140000200004024094
:1004B0001C000020000C02401FA1070080B500AF07
:1004C0000121102000F056F90E4B4FF416521A601D
:1004D0000C4B00229A800B4B00229A81094B0C2274
:1004E0005A81084B00221A81064B4FF40052DA80E1
:1004F00004490548FFF748FE01210348FFF700FFC4
:1005000000BF80BD240000200010014080B582B0F3
:1005100000AF786011E000BF0C4B1B889BB203F06A
:100520004003002BF8D07B681B789BB21946074824
:10053000FFF706FF7B6801337B607B681B78002B2D
:10054000E9D100BF0837BD4680BD00BF00100140A3
:1005500080B582B000AF2023FB8000BF084B1B8812
:100560009BB203F02003002BF8D00548FFF7FAFEFA
:100570000346FB80FB8818460837BD4680BD00BF98
:100580000010014080B500AFFFF72EFFFFF796FF88
:100590001048FFF7BBFF1048FFF7B8FFFFF7D8FF81
:1005A00003461A460D4B1A800C4B1B889BB2412BFD
:1005B00005D14FF480510A4800F088F9EEE7074B67
:1005C0001B889BB25A2BE9D14FF48051044800F0AC
:1005D0008BF9E3E7940900089C090008100000204B
:1005E000000C024080B489B000AF78600023BB618A
:1005F00000237B610023FB6102233B610023FB603E
:100600000223BB60484B9B6803F00C03BB61BB69D2
:10061000042B07D0082B09D0002B3FD17B68434A1D
:100620001A603FE07B68424A1A603BE03E4B5B68E1
:1006300003F480039B0DFB603B4B5B6803F03F03BF
:10064000BB60FB68002B0DD0394ABB68B2FBF3F2EC
:10065000354B596847F6C0730B409B0903FB02F307
:10066000FB610CE0314ABB68B2FBF3F22E4B5968D8
:1006700047F6C0730B409B0903FB02F3FB612A4B57
:100680005B6803F440331B0C01335B003B61FA6988
:100690003B69B2FBF3F27B681A6003E07B68234A94
:1006A0001A6000BF204B9B6803F0F003BB61BB697D
:1006B0001B09BB611F4ABB6913441B78DBB27B611A
:1006C0007B681A687B69DA407B685A60164B9B68C6
:1006D00003F4E053BB61BB699B0ABB61154ABB696C
:1006E00013441B78DBB27B617B685A687B69DA4014
:1006F0007B689A600C4B9B6803F46043BB61BB69E9
:100700005B0BBB610B4ABB6913441B78DBB27B619B
:100710007B685A687B69DA407B68DA6000BF2437FF
:10072000BD4680BC704700BF003802400024F40082
:1007300040787D010000002080B483B000AF786075
:100740000B46FB70FB78002B06D00949084B1A6B4F
:100750007B6813430B6306E00549054B1A6B7B6806
:10076000DB4313400B6300BF0C37BD4680BC7047B2
:100770000038024080B483B000AF78600B46FB7055
:10078000FB78002B06D00949084B5A6C7B68134351
:100790004B6406E00549054B5A6C7B68DB4313400C
:1007A0004B6400BF0C37BD4680BC70470038024028
:1007B00080B487B000AF7860396000237B6100238C
:1007C0003B610023FB6000237B6176E001227B69B3
:1007D00002FA03F33B613B681A683B691340FB6014
:1007E000FA683B699A4265D17B681A687B695B004D
:1007F000032101FA03F3DB431A407B681A607B682C
:100800001A683B681B7919467B695B0001FA03F3A0
:100810001A437B681A603B681B79012B03D03B6845
:100820001B79022B2ED17B689A687B695B000321C0
:1008300001FA03F3DB431A407B689A607B689A688D
:100840003B685B7919467B695B0001FA03F31A4345
:100850007B689A607B685A687B699BB2012101FAC8
:1008600003F3DB431A407B685A607B685A683B6835
:100870009B7919467B699BB201FA03F39BB21A4339
:100880007B685A607B68DA687B699BB25B000321F6
:1008900001FA03F3DB431A407B68DA607B68DA68AD
:1008A0003B68DB7919467B695B0001FA03F31A4365
:1008B0007B68DA607B6901337B617B690F2B85D9AB
:1008C00000BF1C37BD4680BC704700BF80B483B0FA
:1008D00000AF78600B467B807B687A881A8300BF04
:1008E0000C37BD4680BC704780B483B000AF7860E1
:1008F0000B467B807B687A885A8300BF0C37BD46E5
:1009000080BC704780B485B000AF78600B467B80B8
:1009100013467B700023FB600023BB607A787B88E2
:1009200003F007039B0002FA03F3FB607B88DB08FC
:100930009BB218467B88DB089BB21A467B6808325C
:1009400053F822207B8803F007039B000F2101FA54
:1009500003F3DB4302EA03017B6800F1080243F87A
:1009600022107B88DB089BB21A467B68083253F85A
:100970002220FB681343BB607B88DB089BB21A46CE
:100980007B680832B96843F8221000BF1437BD46AF
:1009900080BC70474B525353470A000052454144B4
:0E09A0005920544F20524543494556450A0000
:1009AE000000000001020304010203040607080907
:0400000508000000EF
:00000001FF
