:020000040800F2
:10000000200800200D0200086902000869020008AB
:100010006902000869020008690200080000000087
:10002000000000000000000000000000690200085D
:100030006902000800000000690200086902000867
:1000400069020008690200086902000869020008E4
:1000500069020008690200087102000869020008CC
:1000600069020008690200086902000869020008C4
:1000700069020008690200086902000869020008B4
:1000800069020008690200086902000869020008A4
:100090006902000869020008690200086902000894
:1000A0006902000869020008690200086902000884
:1000B0006902000869020008690200086902000874
:1000C0006902000869020008690200086902000864
:1000D0006902000869020008690200086902000854
:1000E0006902000869020008690200086902000844
:1000F0006902000869020008690200086902000834
:100100006902000869020008690200086902000823
:100110006902000869020008690200086902000813
:100120006902000869020008690200086902000803
:1001300069020008690200086902000869020008F3
:1001400069020008690200086902000869020008E3
:1001500069020008690200086902000869020008D3
:1001600069020008690200086902000869020008C3
:1001700069020008690200086902000869020008B3
:10018000690200086902000890B484B000AF034619
:100190000A46FB711346BB710023FB60BB7903F079
:1001A00003039B000F2202FA03F3FB601649BB799D
:1001B0009B08DBB21846144ABB799B08DBB20233BA
:1001C00052F82320FB68DB431A40831C41F82320AC
:1001D0000D48BB799B08DBB21C460B4ABB799B08D8
:1001E000DBB2023352F82320F979BB7903F0030321
:1001F0009B0001FA03F31A43A31C40F8232000BF1D
:100200001037BD4690BC70470038014080B582B0C1
:1002100000AF104B7B60104B3B6007E03B681A1D42
:100220003A607A68111D796012681A603B680B4A5F
:100230009342F3D30A480B494FF000028842B8BFFB
:1002400040F8042BFADB00F047F800BF0837BD4642
:1002500080BD00BF780700080000002000000020DB
:10026000000000202000002080B400AFFEE700BFA7
:1002700080B500AF4FF48051144800F081F9144B61
:1002800000221A6004E0124B1B680133104A13600D
:100290000F4B1B680F4A9342F5DD4FF480510B481A
:1002A00000F07CF90A4B00221A6004E0084B1B683E
:1002B0000133074A1360064B1B68064A9342F5DD7B
:1002C000012000F0EBF900BF80BD00BF000C024030
:1002D000000000201FA1070080B500AF0121082009
:1002E00000F084F80121012000F080F801214FF492
:1002F000804000F099F8354B01221A60334B002200
:100300001A71324B0022DA713049314800F0AAF8F4
:10031000304B01221A602F4B01229A712D4B002283
:100320001A712C4B08225A7100210020FFF72CFF74
:10033000284800F041F9284B06221A70264B00226B
:100340005A70254B00229A70234B0122DA70224802
:1003500000F0B2F9214B4FF480521A601F4B01227A
:100360001A711E4B00229A711C4B01225A711B4BB1
:100370000022DA7119491A4800F074F84FF48051DC
:10038000174800F0FDF8174B00221A6004E0154BE7
:100390001B680133134A1360124B1B68124A9342C5
:1003A000F5DD4FF480510E4800F0F8F80D4B0022B7
:1003B0001A6004E00B4B1B6801330A4A1360094BB7
:1003C0001B68094A9342F5DDFEE700BF10000020DC
:1003D00000000240040000200C0000201800002053
:1003E000000C0240000000201FA1070080B483B071
:1003F00000AF78600B46FB70FB78002B06D00949F4
:10040000084B1A6B7B6813430B6306E00549054BE9
:100410001A6B7B68DB4313400B6300BF0C37BD4690
:1004200080BC70470038024080B483B000AF786071
:100430000B46FB70FB78002B06D00949084B5A6C21
:100440007B6813434B6406E00549054B5A6C7B6897
:10045000DB4313404B6400BF0C37BD4680BC704784
:100460000038024080B487B000AF78603960002364
:100470007B6100233B610023FB6000237B6176E00E
:1004800001227B6902FA03F33B613B681A683B690E
:100490001340FB60FA683B699A4265D17B681A6831
:1004A0007B695B00032101FA03F3DB431A407B689D
:1004B0001A607B681A683B681B7919467B695B0088
:1004C00001FA03F31A437B681A603B681B79012B1E
:1004D00003D03B681B79022B2ED17B689A687B691D
:1004E0005B00032101FA03F3DB431A407B689A6047
:1004F0007B689A683B685B7919467B695B0001FA07
:1005000003F31A437B689A607B685A687B699BB2E5
:10051000012101FA03F3DB431A407B685A607B68D0
:100520005A683B689B7919467B699BB201FA03F3D1
:100530009BB21A437B685A607B68DA687B699BB21E
:100540005B00032101FA03F3DB431A407B68DA60A6
:100550007B68DA683B68DB7919467B695B0001FAE6
:1005600003F31A437B68DA607B6901337B617B6943
:100570000F2B85D900BF1C37BD4680BC704700BF1C
:1005800080B483B000AF78600B467B807B687A884C
:100590001A8300BF0C37BD4680BC704780B483B05F
:1005A00000AF78600B467B807B687A885A8300BFF7
:1005B0000C37BD4680BC704780B485B000AF786012
:1005C0000023FB60344BFB607B689B79002B4FD092
:1005D0003149314B1A687B681B68DB4313400B6061
:1005E0002D492D4B5A687B681B68DB4313404B60D9
:1005F0007B681B791A46FB681344FB60FB68FA684A
:1006000011687A6812680A431A602349224B9A6873
:100610007B681B68DB4313408B601F491E4BDA6805
:100620007B681B68DB431340CB607B685B79102BD6
:100630000ED11949184B9A687B681B6813438B606D
:100640001549154BDA687B681B681343CB601DE0C6
:10065000114BFB607B685B791A46FB681344FB60B7
:10066000FB68FA6811687A6812680A431A600DE03C
:100670007B681B791A46FB681344FB60FB68FA68C9
:1006800011687A681268D2430A401A6000BF1437B2
:10069000BD4680BC704700BF003C014080B483B0C1
:1006A00000AF7860034A7B68536100BF0C37BD46DA
:1006B00080BC7047003C014080B485B000AF7860DA
:1006C0000023FB730023BB730F237B737B68DB78F2
:1006D000002B38D0264BDB68DB4303F4E0631B0AB6
:1006E000FB73FB7BC3F10403BB737A7BFB7B42FA96
:1006F00003F37B737B685B781A46BB7B02FA03F3D8
:10070000FB737B689A787B7B1340DAB2FB7B1343E5
:10071000FB73FB7B1B01FB73164A7B681B7813443E
:10072000FA7B83F80023134A7B681B785B09DBB2F2
:1007300018467B681B7803F01F03012101FA03F3BD
:1007400042F820300FE00B497B681B785B09DBB275
:1007500018467B681B7803F01F0301229A4000F1C2
:10076000200341F8232000BF1437BD4680BC7047EA
:0807700000ED00E000E100E0F3
:0400000508000000EF
:00000001FF
